{
  "contractName": "FlightSuretyApp",
  "abi": [
    {
      "constant": true,
      "inputs": [],
      "name": "REGISTRATION_FEE",
      "outputs": [
        {
          "name": "",
          "type": "uint256"
        }
      ],
      "payable": false,
      "stateMutability": "view",
      "type": "function"
    },
    {
      "inputs": [
        {
          "name": "dataContractAddress",
          "type": "address"
        }
      ],
      "payable": false,
      "stateMutability": "nonpayable",
      "type": "constructor"
    },
    {
      "anonymous": false,
      "inputs": [
        {
          "indexed": false,
          "name": "airline",
          "type": "address"
        }
      ],
      "name": "AirlineRegistered",
      "type": "event"
    },
    {
      "anonymous": false,
      "inputs": [
        {
          "indexed": false,
          "name": "airline",
          "type": "address"
        },
        {
          "indexed": false,
          "name": "flight",
          "type": "string"
        },
        {
          "indexed": false,
          "name": "timestamp",
          "type": "uint256"
        }
      ],
      "name": "FlightRegistered",
      "type": "event"
    },
    {
      "anonymous": false,
      "inputs": [
        {
          "indexed": false,
          "name": "airline",
          "type": "address"
        },
        {
          "indexed": false,
          "name": "flight",
          "type": "string"
        },
        {
          "indexed": false,
          "name": "timestamp",
          "type": "uint256"
        },
        {
          "indexed": false,
          "name": "status",
          "type": "uint8"
        }
      ],
      "name": "FlightStatusInfo",
      "type": "event"
    },
    {
      "anonymous": false,
      "inputs": [
        {
          "indexed": false,
          "name": "airline",
          "type": "address"
        },
        {
          "indexed": false,
          "name": "flight",
          "type": "string"
        },
        {
          "indexed": false,
          "name": "timestamp",
          "type": "uint256"
        },
        {
          "indexed": false,
          "name": "status",
          "type": "uint8"
        }
      ],
      "name": "OracleReport",
      "type": "event"
    },
    {
      "anonymous": false,
      "inputs": [
        {
          "indexed": false,
          "name": "index",
          "type": "uint8"
        },
        {
          "indexed": false,
          "name": "airline",
          "type": "address"
        },
        {
          "indexed": false,
          "name": "flight",
          "type": "string"
        },
        {
          "indexed": false,
          "name": "timestamp",
          "type": "uint256"
        }
      ],
      "name": "OracleRequest",
      "type": "event"
    },
    {
      "constant": true,
      "inputs": [],
      "name": "isOperational",
      "outputs": [
        {
          "name": "",
          "type": "bool"
        }
      ],
      "payable": false,
      "stateMutability": "view",
      "type": "function"
    },
    {
      "constant": false,
      "inputs": [
        {
          "name": "mode",
          "type": "bool"
        }
      ],
      "name": "setOperational",
      "outputs": [],
      "payable": false,
      "stateMutability": "nonpayable",
      "type": "function"
    },
    {
      "constant": false,
      "inputs": [
        {
          "name": "airline",
          "type": "address"
        },
        {
          "name": "flight",
          "type": "string"
        },
        {
          "name": "timestamp",
          "type": "uint256"
        }
      ],
      "name": "getFlightStatus",
      "outputs": [
        {
          "name": "",
          "type": "string"
        }
      ],
      "payable": false,
      "stateMutability": "nonpayable",
      "type": "function"
    },
    {
      "constant": false,
      "inputs": [
        {
          "name": "airline",
          "type": "address"
        },
        {
          "name": "flight",
          "type": "string"
        },
        {
          "name": "timestamp",
          "type": "uint256"
        }
      ],
      "name": "buy",
      "outputs": [],
      "payable": true,
      "stateMutability": "payable",
      "type": "function"
    },
    {
      "constant": false,
      "inputs": [
        {
          "name": "airline",
          "type": "address"
        }
      ],
      "name": "registerAirline",
      "outputs": [
        {
          "name": "",
          "type": "bool"
        },
        {
          "name": "",
          "type": "uint256"
        }
      ],
      "payable": false,
      "stateMutability": "nonpayable",
      "type": "function"
    },
    {
      "constant": false,
      "inputs": [
        {
          "name": "airline",
          "type": "address"
        },
        {
          "name": "timestamp",
          "type": "uint256"
        },
        {
          "name": "flight",
          "type": "string"
        }
      ],
      "name": "registerFlight",
      "outputs": [],
      "payable": false,
      "stateMutability": "nonpayable",
      "type": "function"
    },
    {
      "constant": false,
      "inputs": [],
      "name": "pay",
      "outputs": [],
      "payable": false,
      "stateMutability": "nonpayable",
      "type": "function"
    },
    {
      "constant": false,
      "inputs": [],
      "name": "fund",
      "outputs": [],
      "payable": true,
      "stateMutability": "payable",
      "type": "function"
    },
    {
      "constant": true,
      "inputs": [
        {
          "name": "passenger",
          "type": "address"
        }
      ],
      "name": "getCredits",
      "outputs": [
        {
          "name": "",
          "type": "uint256"
        }
      ],
      "payable": false,
      "stateMutability": "view",
      "type": "function"
    },
    {
      "constant": false,
      "inputs": [
        {
          "name": "airline",
          "type": "address"
        },
        {
          "name": "flight",
          "type": "string"
        },
        {
          "name": "timestamp",
          "type": "uint256"
        }
      ],
      "name": "fetchFlightStatus",
      "outputs": [],
      "payable": false,
      "stateMutability": "nonpayable",
      "type": "function"
    },
    {
      "constant": false,
      "inputs": [],
      "name": "registerOracle",
      "outputs": [],
      "payable": true,
      "stateMutability": "payable",
      "type": "function"
    },
    {
      "constant": true,
      "inputs": [],
      "name": "getMyIndexes",
      "outputs": [
        {
          "name": "",
          "type": "uint8[3]"
        }
      ],
      "payable": false,
      "stateMutability": "view",
      "type": "function"
    },
    {
      "constant": false,
      "inputs": [
        {
          "name": "index",
          "type": "uint8"
        },
        {
          "name": "airline",
          "type": "address"
        },
        {
          "name": "flight",
          "type": "string"
        },
        {
          "name": "timestamp",
          "type": "uint256"
        },
        {
          "name": "statusCode",
          "type": "uint8"
        }
      ],
      "name": "submitOracleResponse",
      "outputs": [],
      "payable": false,
      "stateMutability": "nonpayable",
      "type": "function"
    }
  ],
  "bytecode": "0x60806040526000600760006101000a81548160ff021916908360ff16021790555034801561002c57600080fd5b506040516020806136f88339810180604052810190808051906020019092919050505080600460016101000a81548173ffffffffffffffffffffffffffffffffffffffff021916908373ffffffffffffffffffffffffffffffffffffffff16021790555033600160006101000a81548173ffffffffffffffffffffffffffffffffffffffff021916908373ffffffffffffffffffffffffffffffffffffffff1602179055506001600460006101000a81548160ff021916908315150217905550506135fc806100fc6000396000f3006080604052600436106100d0576000357c0100000000000000000000000000000000000000000000000000000000900463ffffffff16806305d2b0cf146100d55780631b9265b81461013a578063339d2590146101515780633b66e9f61461015b578063500b94aa146101b25780635f1cc0e6146101e157806364b4f751146102345780639de5f9571461025f578063b1c46d221461033d578063b60d428814610395578063bdfd98771461039f578063c10f270014610401578063cd905dff14610480578063f83f11c0146104af575b600080fd5b3480156100e157600080fd5b50610138600480360381019080803573ffffffffffffffffffffffffffffffffffffffff16906020019092919080359060200190929190803590602001908201803590602001919091929391929390505050610514565b005b34801561014657600080fd5b5061014f610933565b005b610159610ab4565b005b34801561016757600080fd5b5061019c600480360381019080803573ffffffffffffffffffffffffffffffffffffffff169060200190929190505050610bdc565b6040518082815260200191505060405180910390f35b3480156101be57600080fd5b506101df600480360381019080803515159060200190929190505050610d87565b005b3480156101ed57600080fd5b506101f6610e69565b6040518082600360200280838360005b83811015610221578082015181840152602081019050610206565b5050505090500191505060405180910390f35b34801561024057600080fd5b50610249610fde565b6040518082815260200191505060405180910390f35b34801561026b57600080fd5b506102c2600480360381019080803573ffffffffffffffffffffffffffffffffffffffff16906020019092919080359060200190820180359060200191909192939192939080359060200190929190505050610fea565b6040518080602001828103825283818151815260200191508051906020019080838360005b838110156103025780820151818401526020810190506102e7565b50505050905090810190601f16801561032f5780820380516001836020036101000a031916815260200191505b509250505060405180910390f35b610393600480360381019080803573ffffffffffffffffffffffffffffffffffffffff1690602001909291908035906020019082018035906020019190919293919293908035906020019092919050505061144a565b005b61039d611744565b005b3480156103ab57600080fd5b506103e0600480360381019080803573ffffffffffffffffffffffffffffffffffffffff1690602001909291905050506118c6565b60405180831515151581526020018281526020019250505060405180910390f35b34801561040d57600080fd5b5061047e600480360381019080803560ff169060200190929190803573ffffffffffffffffffffffffffffffffffffffff16906020019092919080359060200190820180359060200191909192939192939080359060200190929190803560ff1690602001909291905050506120fc565b005b34801561048c57600080fd5b50610495612715565b604051808215151515815260200191505060405180910390f35b3480156104bb57600080fd5b50610512600480360381019080803573ffffffffffffffffffffffffffffffffffffffff1690602001909291908035906020019082018035906020019190919293919293908035906020019092919050505061272c565b005b600061051e6133ce565b6000600460009054906101000a900460ff1615156105ca576040517f08c379a00000000000000000000000000000000000000000000000000000000081526004018080602001828103825260258152602001807f436f6e74726163742069732063757272656e746c79206e6f74206f706572617481526020017f696f6e616c00000000000000000000000000000000000000000000000000000081525060400191505060405180910390fd5b600460019054906101000a900473ffffffffffffffffffffffffffffffffffffffff1673ffffffffffffffffffffffffffffffffffffffff1663c3c5a547886040518263ffffffff167c0100000000000000000000000000000000000000000000000000000000028152600401808273ffffffffffffffffffffffffffffffffffffffff1673ffffffffffffffffffffffffffffffffffffffff168152602001915050602060405180830381600087803b15801561068757600080fd5b505af115801561069b573d6000803e3d6000fd5b505050506040513d60208110156106b157600080fd5b81019080805190602001909291905050509250821515610739576040517f08c379a000000000000000000000000000000000000000000000000000000000815260040180806020018281038252601c8152602001807f4169726c696e65206e6f74206164646564206f722066756e6465642e0000000081525060200191505060405180910390fd5b6080604051908101604052808415158152602001600060ff1681526020018781526020018873ffffffffffffffffffffffffffffffffffffffff1681525091506107b68786868080601f01602080910402602001604051908101604052809392919081815260200183838082843782019150505050505088612b25565b90508160026000836000191660001916815260200190815260200160002060008201518160000160006101000a81548160ff02191690831515021790555060208201518160000160016101000a81548160ff021916908360ff1602179055506040820151816001015560608201518160020160006101000a81548173ffffffffffffffffffffffffffffffffffffffff021916908373ffffffffffffffffffffffffffffffffffffffff160217905550905050600160036000836000191660001916815260200190815260200160002060006101000a81548160ff0219169083151502179055507f34151dfe5f5d2e1a6ed2a8b951d1f9935b00b4711e31a6c7972eaee3b81c1f0287868689604051808573ffffffffffffffffffffffffffffffffffffffff1673ffffffffffffffffffffffffffffffffffffffff16815260200180602001838152602001828103825285858281815260200192508082843782019150509550505050505060405180910390a150505050505050565b600460009054906101000a900460ff1615156109dd576040517f08c379a00000000000000000000000000000000000000000000000000000000081526004018080602001828103825260258152602001807f436f6e74726163742069732063757272656e746c79206e6f74206f706572617481526020017f696f6e616c00000000000000000000000000000000000000000000000000000081525060400191505060405180910390fd5b600460019054906101000a900473ffffffffffffffffffffffffffffffffffffffff1673ffffffffffffffffffffffffffffffffffffffff16630c11dedd336040518263ffffffff167c0100000000000000000000000000000000000000000000000000000000028152600401808273ffffffffffffffffffffffffffffffffffffffff1673ffffffffffffffffffffffffffffffffffffffff168152602001915050600060405180830381600087803b158015610a9a57600080fd5b505af1158015610aae573d6000803e3d6000fd5b50505050565b610abc613412565b670de0b6b3a76400003410151515610b3c576040517f08c379a000000000000000000000000000000000000000000000000000000000815260040180806020018281038252601c8152602001807f526567697374726174696f6e206665652069732072657175697265640000000081525060200191505060405180910390fd5b610b4533612c4a565b9050604080519081016040528060011515815260200182815250600860003373ffffffffffffffffffffffffffffffffffffffff1673ffffffffffffffffffffffffffffffffffffffff16815260200190815260200160002060008201518160000160006101000a81548160ff021916908315150217905550602082015181600101906003610bd5929190613435565b5090505050565b6000600460009054906101000a900460ff161515610c88576040517f08c379a00000000000000000000000000000000000000000000000000000000081526004018080602001828103825260258152602001807f436f6e74726163742069732063757272656e746c79206e6f74206f706572617481526020017f696f6e616c00000000000000000000000000000000000000000000000000000081525060400191505060405180910390fd5b600460019054906101000a900473ffffffffffffffffffffffffffffffffffffffff1673ffffffffffffffffffffffffffffffffffffffff16633b66e9f6836040518263ffffffff167c0100000000000000000000000000000000000000000000000000000000028152600401808273ffffffffffffffffffffffffffffffffffffffff1673ffffffffffffffffffffffffffffffffffffffff168152602001915050602060405180830381600087803b158015610d4557600080fd5b505af1158015610d59573d6000803e3d6000fd5b505050506040513d6020811015610d6f57600080fd5b81019080805190602001909291905050509050919050565b600160009054906101000a900473ffffffffffffffffffffffffffffffffffffffff1673ffffffffffffffffffffffffffffffffffffffff163373ffffffffffffffffffffffffffffffffffffffff16141515610e4c576040517f08c379a000000000000000000000000000000000000000000000000000000000815260040180806020018281038252601c8152602001807f43616c6c6572206973206e6f7420636f6e7472616374206f776e65720000000081525060200191505060405180910390fd5b80600460006101000a81548160ff02191690831515021790555050565b610e71613412565b600860003373ffffffffffffffffffffffffffffffffffffffff1673ffffffffffffffffffffffffffffffffffffffff16815260200190815260200160002060000160009054906101000a900460ff161515610f35576040517f08c379a000000000000000000000000000000000000000000000000000000000815260040180806020018281038252601b8152602001807f4e6f74207265676973746572656420617320616e206f7261636c65000000000081525060200191505060405180910390fd5b600860003373ffffffffffffffffffffffffffffffffffffffff1673ffffffffffffffffffffffffffffffffffffffff168152602001908152602001600020600101600380602002604051908101604052809291908260038015610fd4576020028201916000905b82829054906101000a900460ff1660ff1681526020019060010190602082600001049283019260010382029150808411610f9d5790505b5050505050905090565b670de0b6b3a764000081565b606060008585858080601f016020809104026020016040519081016040528093929190818152602001838380828437820191505050505050846000611030848484612b25565b905060036000826000191660001916815260200190815260200160002060009054906101000a900460ff1615156110cf576040517f08c379a00000000000000000000000000000000000000000000000000000000081526004018080602001828103825260148152602001807f466c6967687420646f65736e742065786973742e00000000000000000000000081525060200191505060405180910390fd5b61110c8a8a8a8080601f01602080910402602001604051908101604052809392919081815260200183838082843782019150505050505089612b25565b94506040805190810160405280601381526020017f5354415455535f434f44455f554e4b4e4f574e000000000000000000000000008152506000808060ff1660ff168152602001908152602001600020908051906020019061116f9291906134cf565b506040805190810160405280601381526020017f5354415455535f434f44455f4f4e5f54494d4500000000000000000000000000815250600080600a60ff1660ff16815260200190815260200160002090805190602001906111d29291906134cf565b506040805190810160405280601881526020017f5354415455535f434f44455f4c4154455f4149524c494e450000000000000000815250600080601460ff1660ff16815260200190815260200160002090805190602001906112359291906134cf565b506040805190810160405280601881526020017f5354415455535f434f44455f4c4154455f574541544845520000000000000000815250600080601e60ff1660ff16815260200190815260200160002090805190602001906112989291906134cf565b506040805190810160405280601a81526020017f5354415455535f434f44455f4c4154455f544543484e4943414c000000000000815250600080602860ff1660ff16815260200190815260200160002090805190602001906112fb9291906134cf565b506040805190810160405280601681526020017f5354415455535f434f44455f4c4154455f4f5448455200000000000000000000815250600080603260ff1660ff168152602001908152602001600020908051906020019061135e9291906134cf565b5060008060026000886000191660001916815260200190815260200160002060000160019054906101000a900460ff1660ff1660ff1681526020019081526020016000208054600181600116156101000203166002900480601f0160208091040260200160405190810160405280929190818152602001828054600181600116156101000203166002900480156114365780601f1061140b57610100808354040283529160200191611436565b820191906000526020600020905b81548152906001019060200180831161141957829003601f168201915b505050505095505050505050949350505050565b600460009054906101000a900460ff1615156114f4576040517f08c379a00000000000000000000000000000000000000000000000000000000081526004018080602001828103825260258152602001807f436f6e74726163742069732063757272656e746c79206e6f74206f706572617481526020017f696f6e616c00000000000000000000000000000000000000000000000000000081525060400191505060405180910390fd5b8383838080601f016020809104026020016040519081016040528093929190818152602001838380828437820191505050505050826000611536848484612b25565b9050601460ff1660026000836000191660001916815260200190815260200160002060000160019054906101000a900460ff1660ff161415611606576040517f08c379a000000000000000000000000000000000000000000000000000000000815260040180806020018281038252602c8152602001807f43616e27742062757920696e737572616e636520666f7220616c72656164792081526020017f6c61746520666c696768742e000000000000000000000000000000000000000081525060400191505060405180910390fd5b600460019054906101000a900473ffffffffffffffffffffffffffffffffffffffff1673ffffffffffffffffffffffffffffffffffffffff16633518317034338b8b8b8b6040518763ffffffff167c0100000000000000000000000000000000000000000000000000000000028152600401808673ffffffffffffffffffffffffffffffffffffffff1673ffffffffffffffffffffffffffffffffffffffff1681526020018573ffffffffffffffffffffffffffffffffffffffff1673ffffffffffffffffffffffffffffffffffffffff168152602001806020018381526020018281038252858582818152602001925080828437820191505096505050505050506000604051808303818588803b15801561172157600080fd5b505af1158015611735573d6000803e3d6000fd5b50505050505050505050505050565b600460009054906101000a900460ff1615156117ee576040517f08c379a00000000000000000000000000000000000000000000000000000000081526004018080602001828103825260258152602001807f436f6e74726163742069732063757272656e746c79206e6f74206f706572617481526020017f696f6e616c00000000000000000000000000000000000000000000000000000081525060400191505060405180910390fd5b600460019054906101000a900473ffffffffffffffffffffffffffffffffffffffff1673ffffffffffffffffffffffffffffffffffffffff16632302440834336040518363ffffffff167c0100000000000000000000000000000000000000000000000000000000028152600401808273ffffffffffffffffffffffffffffffffffffffff1673ffffffffffffffffffffffffffffffffffffffff1681526020019150506000604051808303818588803b1580156118ab57600080fd5b505af11580156118bf573d6000803e3d6000fd5b5050505050565b6000806000806000600460009054906101000a900460ff161515611978576040517f08c379a00000000000000000000000000000000000000000000000000000000081526004018080602001828103825260258152602001807f436f6e74726163742069732063757272656e746c79206e6f74206f706572617481526020017f696f6e616c00000000000000000000000000000000000000000000000000000081525060400191505060405180910390fd5b600160009054906101000a900473ffffffffffffffffffffffffffffffffffffffff1673ffffffffffffffffffffffffffffffffffffffff163373ffffffffffffffffffffffffffffffffffffffff16141515611b6257600460019054906101000a900473ffffffffffffffffffffffffffffffffffffffff1673ffffffffffffffffffffffffffffffffffffffff1663c3c5a547336040518263ffffffff167c0100000000000000000000000000000000000000000000000000000000028152600401808273ffffffffffffffffffffffffffffffffffffffff1673ffffffffffffffffffffffffffffffffffffffff168152602001915050602060405180830381600087803b158015611a8c57600080fd5b505af1158015611aa0573d6000803e3d6000fd5b505050506040513d6020811015611ab657600080fd5b81019080805190602001909291905050501515611b61576040517f08c379a00000000000000000000000000000000000000000000000000000000081526004018080602001828103825260348152602001807f466c69676874206e6f74207265676973746572656420616e642063616c6c657281526020017f206e6f7420636f6e7472616374206f776e65722e00000000000000000000000081525060400191505060405180910390fd5b5b600460019054906101000a900473ffffffffffffffffffffffffffffffffffffffff1673ffffffffffffffffffffffffffffffffffffffff16637f9e18086040518163ffffffff167c0100000000000000000000000000000000000000000000000000000000028152600401602060405180830381600087803b158015611be857600080fd5b505af1158015611bfc573d6000803e3d6000fd5b505050506040513d6020811015611c1257600080fd5b810190808051906020019092919050505092506004831015611d7657600460019054906101000a900473ffffffffffffffffffffffffffffffffffffffff1673ffffffffffffffffffffffffffffffffffffffff1663bdfd9877876040518263ffffffff167c0100000000000000000000000000000000000000000000000000000000028152600401808273ffffffffffffffffffffffffffffffffffffffff1673ffffffffffffffffffffffffffffffffffffffff168152602001915050600060405180830381600087803b158015611ceb57600080fd5b505af1158015611cff573d6000803e3d6000fd5b505050507f89a6354fb229eda6cbc28306798727b4d524818d2c375220bc3f360f24cffaca86604051808273ffffffffffffffffffffffffffffffffffffffff1673ffffffffffffffffffffffffffffffffffffffff16815260200191505060405180910390a160016000809050945094506120f4565b600560003373ffffffffffffffffffffffffffffffffffffffff1673ffffffffffffffffffffffffffffffffffffffff16815260200190815260200160002060009054906101000a900460ff1615156120e7576001600560003373ffffffffffffffffffffffffffffffffffffffff1673ffffffffffffffffffffffffffffffffffffffff16815260200190815260200160002060006101000a81548160ff02191690831515021790555060063390806001815401808255809150509060018203906000526020600020016000909192909190916101000a81548173ffffffffffffffffffffffffffffffffffffffff021916908373ffffffffffffffffffffffffffffffffffffffff16021790555050611e9b600284612df090919063ffffffff16565b60068054905011156120e6576006805490509150600090505b600680549050811015611f925760056000600683815481101515611ed457fe5b9060005260206000200160009054906101000a900473ffffffffffffffffffffffffffffffffffffffff1673ffffffffffffffffffffffffffffffffffffffff1673ffffffffffffffffffffffffffffffffffffffff16815260200190815260200160002060006101000a81549060ff0219169055600681815481101515611f5857fe5b9060005260206000200160006101000a81549073ffffffffffffffffffffffffffffffffffffffff02191690558080600101915050611eb4565b6000600681611fa1919061354f565b50600460019054906101000a900473ffffffffffffffffffffffffffffffffffffffff1673ffffffffffffffffffffffffffffffffffffffff1663bdfd9877876040518263ffffffff167c0100000000000000000000000000000000000000000000000000000000028152600401808273ffffffffffffffffffffffffffffffffffffffff1673ffffffffffffffffffffffffffffffffffffffff168152602001915050600060405180830381600087803b15801561205f57600080fd5b505af1158015612073573d6000803e3d6000fd5b505050507f89a6354fb229eda6cbc28306798727b4d524818d2c375220bc3f360f24cffaca86604051808273ffffffffffffffffffffffffffffffffffffffff1673ffffffffffffffffffffffffffffffffffffffff16815260200191505060405180910390a1600182945094506120f4565b5b6000600680549050945094505b505050915091565b60008660ff16600860003373ffffffffffffffffffffffffffffffffffffffff1673ffffffffffffffffffffffffffffffffffffffff168152602001908152602001600020600101600060038110151561215257fe5b602091828204019190069054906101000a900460ff1660ff1614806121e157508660ff16600860003373ffffffffffffffffffffffffffffffffffffffff1673ffffffffffffffffffffffffffffffffffffffff16815260200190815260200160002060010160016003811015156121c657fe5b602091828204019190069054906101000a900460ff1660ff16145b8061225657508660ff16600860003373ffffffffffffffffffffffffffffffffffffffff1673ffffffffffffffffffffffffffffffffffffffff168152602001908152602001600020600101600260038110151561223b57fe5b602091828204019190069054906101000a900460ff1660ff16145b15156122f0576040517f08c379a00000000000000000000000000000000000000000000000000000000081526004018080602001828103825260238152602001807f496e64657820646f6573206e6f74206d61746368206f7261636c65207265717581526020017f657374000000000000000000000000000000000000000000000000000000000081525060400191505060405180910390fd5b8686868686604051602001808660ff1660ff167f01000000000000000000000000000000000000000000000000000000000000000281526001018573ffffffffffffffffffffffffffffffffffffffff1673ffffffffffffffffffffffffffffffffffffffff166c010000000000000000000000000281526014018484808284378201915050828152602001955050505050506040516020818303038152906040526040518082805190602001908083835b6020831015156123c757805182526020820191506020810190506020830392506123a2565b6001836020036101000a0380198251168184511680821785525050505050509050019150506040518091039020905060096000826000191660001916815260200190815260200160002060000160149054906101000a900460ff1615156124bc576040517f08c379a000000000000000000000000000000000000000000000000000000000815260040180806020018281038252602f8152602001807f466c69676874206f722074696d657374616d7020646f206e6f74206d6174636881526020017f206f7261636c652072657175657374000000000000000000000000000000000081525060400191505060405180910390fd5b60096000826000191660001916815260200190815260200160002060010160008360ff1660ff1681526020019081526020016000203390806001815401808255809150509060018203906000526020600020016000909192909190916101000a81548173ffffffffffffffffffffffffffffffffffffffff021916908373ffffffffffffffffffffffffffffffffffffffff160217905550507f43c853095c2752648493c88b4baac4d580d2594ffb00c6f1d4242d844514f7838686868686604051808673ffffffffffffffffffffffffffffffffffffffff1673ffffffffffffffffffffffffffffffffffffffff168152602001806020018481526020018360ff1660ff16815260200182810382528686828181526020019250808284378201915050965050505050505060405180910390a1600360096000836000191660001916815260200190815260200160002060010160008460ff1660ff1681526020019081526020016000208054905010151561270c577fe23f5229de535c091e3b7bec2665f5d698192d3b31393066e8987b7a05076b6c8686868686604051808673ffffffffffffffffffffffffffffffffffffffff1673ffffffffffffffffffffffffffffffffffffffff168152602001806020018481526020018360ff1660ff16815260200182810382528686828181526020019250808284378201915050965050505050505060405180910390a161270b8686868080601f0160208091040260200160405190810160405280939291908181526020018383808284378201915050505050508585612e06565b5b50505050505050565b6000600460009054906101000a900460ff16905090565b600080600460009054906101000a900460ff1615156127d9576040517f08c379a00000000000000000000000000000000000000000000000000000000081526004018080602001828103825260258152602001807f436f6e74726163742069732063757272656e746c79206e6f74206f706572617481526020017f696f6e616c00000000000000000000000000000000000000000000000000000081525060400191505060405180910390fd5b8585858080601f01602080910402602001604051908101604052809392919081815260200183838082843782019150505050505084600061281b848484612b25565b905060036000826000191660001916815260200190815260200160002060009054906101000a900460ff1615156128ba576040517f08c379a00000000000000000000000000000000000000000000000000000000081526004018080602001828103825260148152602001807f466c6967687420646f65736e742065786973742e00000000000000000000000081525060200191505060405180910390fd5b6128c33361326c565b9550858a8a8a8a604051602001808660ff1660ff167f01000000000000000000000000000000000000000000000000000000000000000281526001018573ffffffffffffffffffffffffffffffffffffffff1673ffffffffffffffffffffffffffffffffffffffff166c010000000000000000000000000281526014018484808284378201915050828152602001955050505050506040516020818303038152906040526040518082805190602001908083835b60208310151561299c5780518252602082019150602081019050602083039250612977565b6001836020036101000a0380198251168184511680821785525050505050509050019150506040518091039020945060408051908101604052803373ffffffffffffffffffffffffffffffffffffffff1681526020016001151581525060096000876000191660001916815260200190815260200160002060008201518160000160006101000a81548173ffffffffffffffffffffffffffffffffffffffff021916908373ffffffffffffffffffffffffffffffffffffffff16021790555060208201518160000160146101000a81548160ff0219169083151502179055509050507f3ed01f2c3fc24c6b329d931e35b03e390d23497d22b3f90e15b600343e93df11868b8b8b8b604051808660ff1660ff1681526020018573ffffffffffffffffffffffffffffffffffffffff1673ffffffffffffffffffffffffffffffffffffffff1681526020018060200183815260200182810382528585828181526020019250808284378201915050965050505050505060405180910390a150505050505050505050565b6000838383604051602001808473ffffffffffffffffffffffffffffffffffffffff1673ffffffffffffffffffffffffffffffffffffffff166c0100000000000000000000000002815260140183805190602001908083835b602083101515612ba35780518252602082019150602081019050602083039250612b7e565b6001836020036101000a03801982511681845116808217855250505050505090500182815260200193505050506040516020818303038152906040526040518082805190602001908083835b602083101515612c145780518252602082019150602081019050602083039250612bef565b6001836020036101000a038019825116818451168082178552505050505050905001915050604051809103902090509392505050565b612c52613412565b612c5a613412565b612c638361326c565b816000600381101515612c7257fe5b602002019060ff16908160ff1681525050806000600381101515612c9257fe5b6020020151816001600381101515612ca657fe5b602002019060ff16908160ff16815250505b806000600381101515612cc757fe5b602002015160ff16816001600381101515612cde57fe5b602002015160ff161415612d1a57612cf58361326c565b816001600381101515612d0457fe5b602002019060ff16908160ff1681525050612cb8565b806001600381101515612d2957fe5b6020020151816002600381101515612d3d57fe5b602002019060ff16908160ff16815250505b806000600381101515612d5e57fe5b602002015160ff16816002600381101515612d7557fe5b602002015160ff161480612db45750806001600381101515612d9357fe5b602002015160ff16816002600381101515612daa57fe5b602002015160ff16145b15612de757612dc28361326c565b816002600381101515612dd157fe5b602002019060ff16908160ff1681525050612d4f565b80915050919050565b60008183811515612dfd57fe5b04905092915050565b6000600460009054906101000a900460ff161515612eb2576040517f08c379a00000000000000000000000000000000000000000000000000000000081526004018080602001828103825260258152602001807f436f6e74726163742069732063757272656e746c79206e6f74206f706572617481526020017f696f6e616c00000000000000000000000000000000000000000000000000000081525060400191505060405180910390fd5b84600460019054906101000a900473ffffffffffffffffffffffffffffffffffffffff1673ffffffffffffffffffffffffffffffffffffffff1663c3c5a547826040518263ffffffff167c0100000000000000000000000000000000000000000000000000000000028152600401808273ffffffffffffffffffffffffffffffffffffffff1673ffffffffffffffffffffffffffffffffffffffff168152602001915050602060405180830381600087803b158015612f7057600080fd5b505af1158015612f84573d6000803e3d6000fd5b505050506040513d6020811015612f9a57600080fd5b8101908080519060200190929190505050151561301f576040517f08c379a00000000000000000000000000000000000000000000000000000000081526004018080602001828103825260198152602001807f4169726c696e65206973206e6f7420726567697374657265640000000000000081525060200191505060405180910390fd5b8260ff1660026000846000191660001916815260200190815260200160002060000160019054906101000a900460ff1660ff1614156130c6576040517f08c379a00000000000000000000000000000000000000000000000000000000081526004018080602001828103825260148152602001807f4e6f206368616e676520696e207374617475732e00000000000000000000000081525060200191505060405180910390fd5b6130d1868686612b25565b91508260026000846000191660001916815260200190815260200160002060000160016101000a81548160ff021916908360ff160217905550601460ff168360ff16141561326457600460019054906101000a900473ffffffffffffffffffffffffffffffffffffffff1673ffffffffffffffffffffffffffffffffffffffff1663c8820a708787876040518463ffffffff167c0100000000000000000000000000000000000000000000000000000000028152600401808473ffffffffffffffffffffffffffffffffffffffff1673ffffffffffffffffffffffffffffffffffffffff16815260200180602001838152602001828103825284818151815260200191508051906020019080838360005b838110156131fd5780820151818401526020810190506131e2565b50505050905090810190601f16801561322a5780820380516001836020036101000a031916815260200191505b50945050505050600060405180830381600087803b15801561324b57600080fd5b505af115801561325f573d6000803e3d6000fd5b505050505b505050505050565b6000806000600a91508160ff166007600081819054906101000a900460ff168092919060010191906101000a81548160ff021916908360ff16021790555060ff16430340856040516020018083600019166000191681526020018273ffffffffffffffffffffffffffffffffffffffff1673ffffffffffffffffffffffffffffffffffffffff166c01000000000000000000000000028152601401925050506040516020818303038152906040526040518082805190602001908083835b60208310151561334f578051825260208201915060208101905060208303925061332a565b6001836020036101000a03801982511681845116808217855250505050505090500191505060405180910390206001900481151561338957fe5b06905060fa600760009054906101000a900460ff1660ff1611156133c4576000600760006101000a81548160ff021916908360ff1602179055505b8092505050919050565b608060405190810160405280600015158152602001600060ff16815260200160008152602001600073ffffffffffffffffffffffffffffffffffffffff1681525090565b606060405190810160405280600390602082028038833980820191505090505090565b826003601f016020900481019282156134be5791602002820160005b8382111561348f57835183826101000a81548160ff021916908360ff1602179055509260200192600101602081600001049283019260010302613451565b80156134bc5782816101000a81549060ff021916905560010160208160000104928301926001030261348f565b505b5090506134cb919061357b565b5090565b828054600181600116156101000203166002900490600052602060002090601f016020900481019282601f1061351057805160ff191683800117855561353e565b8280016001018555821561353e579182015b8281111561353d578251825591602001919060010190613522565b5b50905061354b91906135ab565b5090565b8154818355818111156135765781836000526020600020918201910161357591906135ab565b5b505050565b6135a891905b808211156135a457600081816101000a81549060ff021916905550600101613581565b5090565b90565b6135cd91905b808211156135c95760008160009055506001016135b1565b5090565b905600a165627a7a72305820fd095edeca534530d1a625675dd92588aa3bcf5389cc9376d19e30e38d82bbfe0029",
  "source": "pragma solidity ^0.4.25;\n\n// It's important to avoid vulnerabilities due to numeric overflow bugs\n// OpenZeppelin's SafeMath library, when used correctly, protects agains such bugs\n// More info: https://www.nccgroup.trust/us/about-us/newsroom-and-events/blog/2018/november/smart-contract-insecurity-bad-arithmetic/\n\nimport \"../node_modules/openzeppelin-solidity/contracts/math/SafeMath.sol\";\n\n/************************************************** */\n/* FlightSurety Smart Contract                      */\n/************************************************** */\ncontract FlightSuretyApp {\n    using SafeMath for uint256; // Allow SafeMath functions to be called for all uint256 types (similar to \"prototype\" in Javascript)\n\n    /********************************************************************************************/\n    /*                                       DATA VARIABLES                                     */\n    /********************************************************************************************/\n\n    // Flight status codes\n    uint8 private constant STATUS_CODE_UNKNOWN = 0;\n    uint8 private constant STATUS_CODE_ON_TIME = 10;\n    uint8 private constant STATUS_CODE_LATE_AIRLINE = 20;\n    uint8 private constant STATUS_CODE_LATE_WEATHER = 30;\n    uint8 private constant STATUS_CODE_LATE_TECHNICAL = 40;\n    uint8 private constant STATUS_CODE_LATE_OTHER = 50;\n    mapping(uint8 => string) results;\n\n    address private contractOwner; // Account used to deploy contract\n\n    struct Flight {\n        bool isRegistered;\n        uint8 statusCode;\n        uint256 updatedTimestamp;\n        address airline;\n    }\n\n    mapping(bytes32 => Flight) private flights;\n    mapping(bytes32 => bool) private flightExists;\n\n    bool private operational;\n\n    FlightSuretyData flightSuretyData;\n\n    mapping(address => bool) registrationConsensus;\n    address[] registrationConsensusParticipants;\n\n\n    /********************************************************************************************/\n    /*                                       FUNCTION MODIFIERS                                 */\n    /********************************************************************************************/\n\n    // Modifiers help avoid duplication of code. They are typically used to validate something\n    // before a function is allowed to be executed.\n\n    /**\n    * @dev Modifier that requires the \"operational\" boolean variable to be \"true\"\n    *      This is used on all state changing functions to pause the contract in \n    *      the event there is an issue that needs to be fixed\n    */\n    modifier requireIsOperational()\n    {\n        // Modify to call data contract's status\n        require(operational, \"Contract is currently not operational\");\n        _;  // All modifiers require an \"_\" which indicates where the function body will be added\n    }\n\n    /**\n    * @dev Modifier that requires the \"ContractOwner\" account to be the function caller\n    */\n    modifier requireContractOwner()\n    {\n        require(msg.sender == contractOwner, \"Caller is not contract owner\");\n        _;\n    }\n    // require is registered\n    modifier requireIsRegistered(address airline)\n    {\n        require(flightSuretyData.isRegistered(airline), \"Airline is not registered\");\n        _;\n    }\n\n    modifier requireFlightExists(address airline, string flight, uint256 timestamp){\n        bytes32 key = getFlightKey(airline, flight, timestamp);\n        require(flightExists[key],\"Flight doesnt exist.\");\n        _;\n    }\n    modifier requireFlightNotAlreadyLate(address airline, string flight, uint256 timestamp){\n        bytes32 key = getFlightKey(airline, flight, timestamp);\n        if(flights[key].statusCode == STATUS_CODE_LATE_AIRLINE){\n            revert(\"Can't buy insurance for already late flight.\");\n        }\n        _;\n    }\n    /********************************************************************************************/\n    /*                                       CONSTRUCTOR                                        */\n    /********************************************************************************************/\n\n    /**\n    * @dev Contract constructor\n    *\n    */\n    constructor\n    (\n        address dataContractAddress\n    )\n    public\n    {\n        flightSuretyData = FlightSuretyData(dataContractAddress);\n        contractOwner = msg.sender;\n        operational = true;\n    }\n\n    /********************************************************************************************/\n    /*                                       UTILITY FUNCTIONS                                  */\n    /********************************************************************************************/\n\n    function isOperational()\n    public\n    view\n    returns(bool)\n    {\n        return operational;  // Modify to call data contract's status\n    }\n\n    function setOperational(bool mode)\n    public\n    requireContractOwner\n    {\n        operational = mode;\n    }\n\n    function getFlightStatus(\n        address airline,\n        string flight,\n        uint256 timestamp\n    )\n    external\n    requireFlightExists(airline, flight, timestamp)\n    returns(string)\n    {\n        bytes32 key = getFlightKey(airline, flight, timestamp);\n\n        results[STATUS_CODE_UNKNOWN] = \"STATUS_CODE_UNKNOWN\";\n        results[STATUS_CODE_ON_TIME] = \"STATUS_CODE_ON_TIME\";\n        results[STATUS_CODE_LATE_AIRLINE] = \"STATUS_CODE_LATE_AIRLINE\";\n        results[STATUS_CODE_LATE_WEATHER] = \"STATUS_CODE_LATE_WEATHER\";\n        results[STATUS_CODE_LATE_TECHNICAL] = \"STATUS_CODE_LATE_TECHNICAL\";\n        results[STATUS_CODE_LATE_OTHER] = \"STATUS_CODE_LATE_OTHER\";\n\n        return results[flights[key].statusCode];\n    }\n    /********************************************************************************************/\n    /*                                     SMART CONTRACT FUNCTIONS                             */\n    /********************************************************************************************/\n\n    function buy(\n        address airline,\n        string flight,\n        uint256 timestamp\n    )\n    external\n    requireIsOperational\n    requireFlightNotAlreadyLate(airline, flight, timestamp)\n    payable\n    {\n        flightSuretyData.buy.value(msg.value)(msg.sender, airline, flight, timestamp);\n    }\n\n    event AirlineRegistered(address airline);\n\n    /**\n     * @dev Add an airline to the registration queue\n     *\n     */\n    function registerAirline\n    (\n        address airline\n    )\n    external\n    requireIsOperational\n    returns(bool, uint256)\n    {\n        if(msg.sender != contractOwner){\n            if (!flightSuretyData.isRegistered(msg.sender)){\n                revert(\"Flight not registered and caller not contract owner.\");\n            }\n        }\n        uint256 airlineCount = flightSuretyData.getAirlineCount();\n        // register airline if less than 4 registrations\n        if (airlineCount < 4){\n            flightSuretyData.registerAirline(airline);\n            emit AirlineRegistered(airline);\n\n            return (true, 0);\n        }\n\n        // else if airline hasn't been yet registered\n        if(!registrationConsensus[msg.sender]){\n            registrationConsensus[msg.sender] = true;\n            registrationConsensusParticipants.push(msg.sender);\n\n            // if no. of votes is 50% of registered airlines\n            if(registrationConsensusParticipants.length > airlineCount.div(2)){\n\n                // clear consensus mapping\n                uint votes = registrationConsensusParticipants.length;\n                for(uint i=0; i<registrationConsensusParticipants.length; i++){\n                    delete registrationConsensus[registrationConsensusParticipants[i]];\n                    delete registrationConsensusParticipants[i];\n                }\n                registrationConsensusParticipants.length=0;\n\n                // register and increment count\n                flightSuretyData.registerAirline(airline);\n                emit AirlineRegistered(airline);\n\n                return (true, votes);\n            }\n        }\n        return (false, registrationConsensusParticipants.length);\n    }\n\n    event FlightRegistered(address airline, string flight, uint timestamp);\n    /**\n     * @dev Register a future flight for insuring.\n     *\n     */\n    function registerFlight\n    (\n        address airline,\n        uint256 timestamp,\n        string flight\n    )\n    requireIsOperational\n    external\n    {\n        bool isRegistered = flightSuretyData.isRegistered(airline);\n        require(isRegistered,\"Airline not added or funded.\");\n\n        Flight memory f = Flight(isRegistered, STATUS_CODE_UNKNOWN, timestamp, airline);\n\n        bytes32 key = getFlightKey(airline, flight, timestamp);\n\n        flights[key] = f;\n        flightExists[key] = true;\n        emit FlightRegistered(airline, flight, timestamp);\n    }\n\n    /**\n     * @dev Called after oracle has updated flight status\n     *\n     */\n    function processFlightStatus\n    (\n        address airline,\n        string memory flight,\n        uint256 timestamp,\n        uint8 statusCode\n    )\n    internal\n    requireIsOperational\n    requireIsRegistered(airline)\n    {\n        if(flights[key].statusCode == statusCode){\n            revert(\"No change in status.\");\n        }\n\n        bytes32 key = getFlightKey(airline, flight, timestamp);\n\n        flights[key].statusCode = statusCode;\n\n        if(statusCode == STATUS_CODE_LATE_AIRLINE){\n            flightSuretyData.creditInsurees(airline, flight, timestamp);\n        }\n    }\n\n    function pay() requireIsOperational external{\n        flightSuretyData.pay(msg.sender);\n    }\n\n    function fund() requireIsOperational external payable{\n        flightSuretyData.fund.value(msg.value)(msg.sender);\n    }\n\n    function getCredits(address passenger) requireIsOperational external view returns(uint256){\n        return uint256(flightSuretyData.getCredits(passenger));\n    }\n\n    // Generate a request for oracles to fetch flight information\n    function fetchFlightStatus\n    (\n        address airline,\n        string flight,\n        uint256 timestamp\n    )\n    external\n    requireIsOperational\n    requireFlightExists(airline, flight, timestamp)\n    {\n        uint8 index = getRandomIndex(msg.sender);\n\n        // Generate a unique key for storing the request\n        bytes32 key = keccak256(abi.encodePacked(index, airline, flight, timestamp));\n        oracleResponses[key] = ResponseInfo({\n        requester: msg.sender,\n        isOpen: true\n        });\n\n        emit OracleRequest(index, airline, flight, timestamp);\n    }\n\n\n    // region ORACLE MANAGEMENT\n\n    // Incremented to add pseudo-randomness at various points\n    uint8 private nonce = 0;\n\n    // Fee to be paid when registering oracle\n    uint256 public constant REGISTRATION_FEE = 1 ether;\n\n    // Number of oracles that must respond for valid status\n    uint256 private constant MIN_RESPONSES = 3;\n\n\n    struct Oracle {\n        bool isRegistered;\n        uint8[3] indexes;\n    }\n\n    // Track all registered oracles\n    mapping(address => Oracle) private oracles;\n\n    // Model for responses from oracles\n    struct ResponseInfo {\n        address requester;                              // Account that requested status\n        bool isOpen;                                    // If open, oracle responses are accepted\n        mapping(uint8 => address[]) responses;          // Mapping key is the status code reported\n        // This lets us group responses and identify\n        // the response that majority of the oracles\n    }\n\n    // Track all oracle responses\n    // Key = hash(index, flight, timestamp)\n    mapping(bytes32 => ResponseInfo) private oracleResponses;\n\n    // Event fired each time an oracle submits a response\n    event FlightStatusInfo(address airline, string flight, uint256 timestamp, uint8 status);\n\n    event OracleReport(address airline, string flight, uint256 timestamp, uint8 status);\n\n    // Event fired when flight status request is submitted\n    // Oracles track this and if they have a matching index\n    // they fetch data and submit a response\n    event OracleRequest(uint8 index, address airline, string flight, uint256 timestamp);\n\n\n    // Register an oracle with the contract\n    function registerOracle\n    (\n    )\n    external\n    payable\n    {\n        // Require registration fee\n        require(msg.value >= REGISTRATION_FEE, \"Registration fee is required\");\n\n        uint8[3] memory indexes = generateIndexes(msg.sender);\n\n        oracles[msg.sender] = Oracle({\n        isRegistered: true,\n        indexes: indexes\n        });\n    }\n\n    function getMyIndexes\n    (\n    )\n    view\n    external\n    returns(uint8[3])\n    {\n        require(oracles[msg.sender].isRegistered, \"Not registered as an oracle\");\n\n        return oracles[msg.sender].indexes;\n    }\n\n\n\n\n    // Called by oracle when a response is available to an outstanding request\n    // For the response to be accepted, there must be a pending request that is open\n    // and matches one of the three Indexes randomly assigned to the oracle at the\n    // time of registration (i.e. uninvited oracles are not welcome)\n    function submitOracleResponse\n    (\n        uint8 index,\n        address airline,\n        string flight,\n        uint256 timestamp,\n        uint8 statusCode\n    )\n    external\n    {\n        require((oracles[msg.sender].indexes[0] == index) || (oracles[msg.sender].indexes[1] == index) || (oracles[msg.sender].indexes[2] == index), \"Index does not match oracle request\");\n\n\n        bytes32 key = keccak256(abi.encodePacked(index, airline, flight, timestamp));\n        require(oracleResponses[key].isOpen, \"Flight or timestamp do not match oracle request\");\n\n        oracleResponses[key].responses[statusCode].push(msg.sender);\n\n        // Information isn't considered verified until at least MIN_RESPONSES\n        // oracles respond with the *** same *** information\n        emit OracleReport(airline, flight, timestamp, statusCode);\n        if (oracleResponses[key].responses[statusCode].length >= MIN_RESPONSES) {\n\n            emit FlightStatusInfo(airline, flight, timestamp, statusCode);\n\n            // Handle flight status as appropriate\n            processFlightStatus(airline, flight, timestamp, statusCode);\n        }\n    }\n\n\n    function getFlightKey\n    (\n        address airline,\n        string flight,\n        uint256 timestamp\n    )\n    pure\n    internal\n    returns(bytes32)\n    {\n        return keccak256(abi.encodePacked(airline, flight, timestamp));\n    }\n\n    // Returns array of three non-duplicating integers from 0-9\n    function generateIndexes\n    (\n        address account\n    )\n    internal\n    returns(uint8[3])\n    {\n        uint8[3] memory indexes;\n        indexes[0] = getRandomIndex(account);\n\n        indexes[1] = indexes[0];\n        while(indexes[1] == indexes[0]) {\n            indexes[1] = getRandomIndex(account);\n        }\n\n        indexes[2] = indexes[1];\n        while((indexes[2] == indexes[0]) || (indexes[2] == indexes[1])) {\n            indexes[2] = getRandomIndex(account);\n        }\n\n        return indexes;\n    }\n\n    // Returns array of three non-duplicating integers from 0-9\n    function getRandomIndex\n    (\n        address account\n    )\n    internal\n    returns (uint8)\n    {\n        uint8 maxValue = 10;\n\n        // Pseudo random number...the incrementing nonce adds variation\n        uint8 random = uint8(uint256(keccak256(abi.encodePacked(blockhash(block.number - nonce++), account))) % maxValue);\n\n        if (nonce > 250) {\n            nonce = 0;  // Can only fetch blockhashes for last 256 blocks so we adapt\n        }\n\n        return random;\n    }\n\n    // endregion\n\n}\n\ncontract FlightSuretyData{\n\n    //register\n    function registerAirline\n    (\n        address add\n    )\n    external;\n\n    //register first\n    function registerFreeAirline\n    (\n        address owner,\n        address add\n    )\n    external;\n\n    //isRegistered\n    function isRegistered(address add)\n    public\n    view\n    returns(bool);\n\n    //creditInsurees\n    function creditInsurees\n    (\n        address airline,\n        string flight,\n        uint256 timestamp\n    )\n    external;\n\n    // airline counter\n    function getAirlineCount\n    (\n    )\n    external\n    view\n    returns(uint256);\n\n    // transfer the credit\n    function pay\n    (\n        address add\n    )\n    external\n    payable;\n\n    // auth\n    function authorizeCaller(address add) external;\n\n    // fund\n    function fund\n    (\n        address add\n    )\n    public\n    payable;\n\n    // buy\n    function buy\n    (\n        address user,\n        address airline,\n        string flight,\n        uint256 timestamp\n    )\n    external\n    payable;\n\n    // see credits\n    function getCredits\n    (\n        address passenger\n    )\n    external\n    view\n    returns(uint256);\n\n}",
  "sourcePath": "/home/munaf/IdeaProjects/Wing3/contracts/FlightSuretyApp.sol",
  "compiler": {
    "name": "solc",
    "version": "0.4.26+commit.4563c3fc.Emscripten.clang"
  },
  "schemaVersion": "3.0.1",
  "updatedAt": "2021-07-23T05:21:38.442Z",
  "devdoc": {
    "methods": {
      "registerAirline(address)": {
        "details": "Add an airline to the registration queue     "
      },
      "registerFlight(address,uint256,string)": {
        "details": "Register a future flight for insuring.     "
      }
    }
  },
  "userdoc": {
    "methods": {
      "buy(address,string,uint256)": {
        "notice": "*****************************************************************************************"
      },
      "isOperational()": {
        "notice": "*****************************************************************************************"
      }
    }
  }
}