{
  "contractName": "FlightSuretyData",
  "abi": [
    {
      "inputs": [],
      "payable": false,
      "stateMutability": "nonpayable",
      "type": "constructor"
    },
    {
      "payable": true,
      "stateMutability": "payable",
      "type": "fallback"
    },
    {
      "constant": false,
      "inputs": [
        {
          "name": "add",
          "type": "address"
        }
      ],
      "name": "authorizeCaller",
      "outputs": [],
      "payable": false,
      "stateMutability": "nonpayable",
      "type": "function"
    },
    {
      "constant": false,
      "inputs": [
        {
          "name": "add",
          "type": "address"
        }
      ],
      "name": "deauthorizeCaller",
      "outputs": [],
      "payable": false,
      "stateMutability": "nonpayable",
      "type": "function"
    },
    {
      "constant": true,
      "inputs": [
        {
          "name": "add",
          "type": "address"
        }
      ],
      "name": "isAirline",
      "outputs": [
        {
          "name": "",
          "type": "bool"
        }
      ],
      "payable": false,
      "stateMutability": "view",
      "type": "function"
    },
    {
      "constant": true,
      "inputs": [
        {
          "name": "airline",
          "type": "address"
        }
      ],
      "name": "isRegistered",
      "outputs": [
        {
          "name": "",
          "type": "bool"
        }
      ],
      "payable": false,
      "stateMutability": "view",
      "type": "function"
    },
    {
      "constant": true,
      "inputs": [],
      "name": "isOperational",
      "outputs": [
        {
          "name": "",
          "type": "bool"
        }
      ],
      "payable": false,
      "stateMutability": "view",
      "type": "function"
    },
    {
      "constant": false,
      "inputs": [
        {
          "name": "mode",
          "type": "bool"
        }
      ],
      "name": "setOperatingStatus",
      "outputs": [],
      "payable": false,
      "stateMutability": "nonpayable",
      "type": "function"
    },
    {
      "constant": true,
      "inputs": [],
      "name": "getAirlineCount",
      "outputs": [
        {
          "name": "",
          "type": "uint256"
        }
      ],
      "payable": false,
      "stateMutability": "view",
      "type": "function"
    },
    {
      "constant": false,
      "inputs": [
        {
          "name": "add",
          "type": "address"
        }
      ],
      "name": "registerFreeAirline",
      "outputs": [],
      "payable": false,
      "stateMutability": "nonpayable",
      "type": "function"
    },
    {
      "constant": false,
      "inputs": [
        {
          "name": "add",
          "type": "address"
        }
      ],
      "name": "registerAirline",
      "outputs": [],
      "payable": false,
      "stateMutability": "nonpayable",
      "type": "function"
    },
    {
      "constant": false,
      "inputs": [
        {
          "name": "user",
          "type": "address"
        },
        {
          "name": "airline",
          "type": "address"
        },
        {
          "name": "flight",
          "type": "string"
        },
        {
          "name": "timestamp",
          "type": "uint256"
        }
      ],
      "name": "buy",
      "outputs": [],
      "payable": true,
      "stateMutability": "payable",
      "type": "function"
    },
    {
      "constant": false,
      "inputs": [
        {
          "name": "airline",
          "type": "address"
        },
        {
          "name": "flight",
          "type": "string"
        },
        {
          "name": "timestamp",
          "type": "uint256"
        }
      ],
      "name": "creditInsurees",
      "outputs": [],
      "payable": false,
      "stateMutability": "nonpayable",
      "type": "function"
    },
    {
      "constant": true,
      "inputs": [
        {
          "name": "passenger",
          "type": "address"
        }
      ],
      "name": "getCredits",
      "outputs": [
        {
          "name": "",
          "type": "uint256"
        }
      ],
      "payable": false,
      "stateMutability": "view",
      "type": "function"
    },
    {
      "constant": false,
      "inputs": [
        {
          "name": "add",
          "type": "address"
        }
      ],
      "name": "pay",
      "outputs": [],
      "payable": true,
      "stateMutability": "payable",
      "type": "function"
    },
    {
      "constant": false,
      "inputs": [
        {
          "name": "add",
          "type": "address"
        }
      ],
      "name": "fund",
      "outputs": [],
      "payable": true,
      "stateMutability": "payable",
      "type": "function"
    }
  ],
  "bytecode": "0x60806040526001600060146101000a81548160ff02191690831515021790555034801561002b57600080fd5b50336000806101000a81548173ffffffffffffffffffffffffffffffffffffffff021916908373ffffffffffffffffffffffffffffffffffffffff1602179055506001600560008060009054906101000a900473ffffffffffffffffffffffffffffffffffffffff1673ffffffffffffffffffffffffffffffffffffffff1673ffffffffffffffffffffffffffffffffffffffff16815260200190815260200160002060006101000a81548160ff02191690831515021790555061243b806100f46000396000f3006080604052600436106100d0576000357c0100000000000000000000000000000000000000000000000000000000900463ffffffff1680630c11dedd1461017c5780630e248a11146101b2578063110466ed1461020d578063230244081461023c5780632c388d5d1461027257806335183170146102b55780633b66e9f61461032d5780636873c21d146103845780637f9e1808146103c75780639a9903f9146103f2578063bdfd987714610435578063c3c5a54714610478578063c8820a70146104d3578063cd905dff14610538575b600080369050141515610171576040517f08c379a00000000000000000000000000000000000000000000000000000000081526004018080602001828103825260288152602001807f4e6f206461746120616c6c6f77656420696e207468652066616c6c6261636b2081526020017f66756e6374696f6e00000000000000000000000000000000000000000000000081525060400191505060405180910390fd5b61017a33610567565b005b6101b0600480360381019080803573ffffffffffffffffffffffffffffffffffffffff16906020019092919050505061090a565b005b3480156101be57600080fd5b506101f3600480360381019080803573ffffffffffffffffffffffffffffffffffffffff169060200190929190505050610bfd565b604051808215151515815260200191505060405180910390f35b34801561021957600080fd5b5061023a600480360381019080803515159060200190929190505050610c56565b005b610270600480360381019080803573ffffffffffffffffffffffffffffffffffffffff169060200190929190505050610567565b005b34801561027e57600080fd5b506102b3600480360381019080803573ffffffffffffffffffffffffffffffffffffffff169060200190929190505050610d37565b005b61032b600480360381019080803573ffffffffffffffffffffffffffffffffffffffff169060200190929190803573ffffffffffffffffffffffffffffffffffffffff16906020019092919080359060200190820180359060200191909192939192939080359060200190929190505050610e56565b005b34801561033957600080fd5b5061036e600480360381019080803573ffffffffffffffffffffffffffffffffffffffff169060200190929190505050611316565b6040518082815260200191505060405180910390f35b34801561039057600080fd5b506103c5600480360381019080803573ffffffffffffffffffffffffffffffffffffffff1690602001909291905050506114c9565b005b3480156103d357600080fd5b506103dc6115df565b6040518082815260200191505060405180910390f35b3480156103fe57600080fd5b50610433600480360381019080803573ffffffffffffffffffffffffffffffffffffffff1690602001909291905050506115e9565b005b34801561044157600080fd5b50610476600480360381019080803573ffffffffffffffffffffffffffffffffffffffff169060200190929190505050611887565b005b34801561048457600080fd5b506104b9600480360381019080803573ffffffffffffffffffffffffffffffffffffffff169060200190929190505050611bd6565b604051808215151515815260200191505060405180910390f35b3480156104df57600080fd5b50610536600480360381019080803573ffffffffffffffffffffffffffffffffffffffff16906020019092919080359060200190820180359060200191909192939192939080359060200190929190505050611c2f565b005b34801561054457600080fd5b5061054d612227565b604051808215151515815260200191505060405180910390f35b600060149054906101000a900460ff161515610611576040517f08c379a00000000000000000000000000000000000000000000000000000000081526004018080602001828103825260258152602001807f436f6e74726163742069732063757272656e746c79206e6f74206f706572617481526020017f696f6e616c00000000000000000000000000000000000000000000000000000081525060400191505060405180910390fd5b600560003373ffffffffffffffffffffffffffffffffffffffff1673ffffffffffffffffffffffffffffffffffffffff16815260200190815260200160002060009054906101000a900460ff1615156106d2576040517f08c379a00000000000000000000000000000000000000000000000000000000081526004018080602001828103825260188152602001807f43616c6c6572206973206e6f7420617574686f72697a6564000000000000000081525060200191505060405180910390fd5b806106dc81610bfd565b1515610776576040517f08c379a00000000000000000000000000000000000000000000000000000000081526004018080602001828103825260228152602001807f4169726c696e65206861736e2774206265656e2072656769737465726564207981526020017f657400000000000000000000000000000000000000000000000000000000000081525060400191505060405180910390fd5b61077f82611bd6565b1515156107f4576040517f08c379a000000000000000000000000000000000000000000000000000000000815260040180806020018281038252601a8152602001807f4169726c696e6520616c7265616479207265676973746572656400000000000081525060200191505060405180910390fd5b678ac7230489e8000034141515610899576040517f08c379a000000000000000000000000000000000000000000000000000000000815260040180806020018281038252602c8152602001807f5061796d656e742073686f756c642065786163746c7920657175616c2031302081526020017f657468657273202b20676173000000000000000000000000000000000000000081525060400191505060405180910390fd5b6001600260008473ffffffffffffffffffffffffffffffffffffffff1673ffffffffffffffffffffffffffffffffffffffff16815260200190815260200160002060000160146101000a81548160ff0219169083151502179055506001600081548092919060010191905055505050565b60008060149054906101000a900460ff1615156109b5576040517f08c379a00000000000000000000000000000000000000000000000000000000081526004018080602001828103825260258152602001807f436f6e74726163742069732063757272656e746c79206e6f74206f706572617481526020017f696f6e616c00000000000000000000000000000000000000000000000000000081525060400191505060405180910390fd5b600560003373ffffffffffffffffffffffffffffffffffffffff1673ffffffffffffffffffffffffffffffffffffffff16815260200190815260200160002060009054906101000a900460ff161515610a76576040517f08c379a00000000000000000000000000000000000000000000000000000000081526004018080602001828103825260188152602001807f43616c6c6572206973206e6f7420617574686f72697a6564000000000000000081525060200191505060405180910390fd5b6000600460008473ffffffffffffffffffffffffffffffffffffffff1673ffffffffffffffffffffffffffffffffffffffff16815260200190815260200160002054111515610b2d576040517f08c379a00000000000000000000000000000000000000000000000000000000081526004018080602001828103825260208152602001807f496e73756666696369656e742062616c616e636520746f207472616e7366657281525060200191505060405180910390fd5b600460008373ffffffffffffffffffffffffffffffffffffffff1673ffffffffffffffffffffffffffffffffffffffff168152602001908152602001600020549050600460008373ffffffffffffffffffffffffffffffffffffffff1673ffffffffffffffffffffffffffffffffffffffff168152602001908152602001600020600090558173ffffffffffffffffffffffffffffffffffffffff166108fc829081150290604051600060405180830381858888f19350505050158015610bf8573d6000803e3d6000fd5b505050565b6000600260008373ffffffffffffffffffffffffffffffffffffffff1673ffffffffffffffffffffffffffffffffffffffff16815260200190815260200160002060020160009054906101000a900460ff169050919050565b6000809054906101000a900473ffffffffffffffffffffffffffffffffffffffff1673ffffffffffffffffffffffffffffffffffffffff163373ffffffffffffffffffffffffffffffffffffffff16141515610d1a576040517f08c379a000000000000000000000000000000000000000000000000000000000815260040180806020018281038252601c8152602001807f43616c6c6572206973206e6f7420636f6e7472616374206f776e65720000000081525060200191505060405180910390fd5b80600060146101000a81548160ff02191690831515021790555050565b6000809054906101000a900473ffffffffffffffffffffffffffffffffffffffff1673ffffffffffffffffffffffffffffffffffffffff163373ffffffffffffffffffffffffffffffffffffffff16141515610dfb576040517f08c379a000000000000000000000000000000000000000000000000000000000815260040180806020018281038252601c8152602001807f43616c6c6572206973206e6f7420636f6e7472616374206f776e65720000000081525060200191505060405180910390fd5b6001600560008373ffffffffffffffffffffffffffffffffffffffff1673ffffffffffffffffffffffffffffffffffffffff16815260200190815260200160002060006101000a81548160ff02191690831515021790555050565b60008060149054906101000a900460ff161515610f01576040517f08c379a00000000000000000000000000000000000000000000000000000000081526004018080602001828103825260258152602001807f436f6e74726163742069732063757272656e746c79206e6f74206f706572617481526020017f696f6e616c00000000000000000000000000000000000000000000000000000081525060400191505060405180910390fd5b600560003373ffffffffffffffffffffffffffffffffffffffff1673ffffffffffffffffffffffffffffffffffffffff16815260200190815260200160002060009054906101000a900460ff161515610fc2576040517f08c379a00000000000000000000000000000000000000000000000000000000081526004018080602001828103825260188152602001807f43616c6c6572206973206e6f7420617574686f72697a6564000000000000000081525060200191505060405180910390fd5b84610fcc81610bfd565b1515611066576040517f08c379a00000000000000000000000000000000000000000000000000000000081526004018080602001828103825260228152602001807f4169726c696e65206861736e2774206265656e2072656769737465726564207981526020017f657400000000000000000000000000000000000000000000000000000000000081525060400191505060405180910390fd5b85600260008273ffffffffffffffffffffffffffffffffffffffff1673ffffffffffffffffffffffffffffffffffffffff16815260200190815260200160002060000160149054906101000a900460ff161515611151576040517f08c379a00000000000000000000000000000000000000000000000000000000081526004018080602001828103825260358152602001807f4169726c696e65207265676973746572656420627574206861736e277420737581526020017f626d697474656420746865207374616b6520796574000000000000000000000081525060400191505060405180910390fd5b6000341180156111695750670de0b6b3a76400003411155b1515611203576040517f08c379a000000000000000000000000000000000000000000000000000000000815260040180806020018281038252602d8152602001807f496e76616c69642065746865722076616c7565202876616c69642072616e676581526020017f733a205b302d312920657468730000000000000000000000000000000000000081525060400191505060405180910390fd5b6112408787878080601f0160208091040260200160405190810160405280939291908181526020018383808284378201915050505050508661223d565b92506003600084600019166000191681526020019081526020016000206000013490806001815401808255809150509060018203906000526020600020016000909192909190915055506003600084600019166000191681526020019081526020016000206002018890806001815401808255809150509060018203906000526020600020016000909192909190916101000a81548173ffffffffffffffffffffffffffffffffffffffff021916908373ffffffffffffffffffffffffffffffffffffffff160217905550505050505050505050565b60008060149054906101000a900460ff1615156113c1576040517f08c379a00000000000000000000000000000000000000000000000000000000081526004018080602001828103825260258152602001807f436f6e74726163742069732063757272656e746c79206e6f74206f706572617481526020017f696f6e616c00000000000000000000000000000000000000000000000000000081525060400191505060405180910390fd5b600560003373ffffffffffffffffffffffffffffffffffffffff1673ffffffffffffffffffffffffffffffffffffffff16815260200190815260200160002060009054906101000a900460ff161515611482576040517f08c379a00000000000000000000000000000000000000000000000000000000081526004018080602001828103825260188152602001807f43616c6c6572206973206e6f7420617574686f72697a6564000000000000000081525060200191505060405180910390fd5b600460008373ffffffffffffffffffffffffffffffffffffffff1673ffffffffffffffffffffffffffffffffffffffff168152602001908152602001600020549050919050565b6000809054906101000a900473ffffffffffffffffffffffffffffffffffffffff1673ffffffffffffffffffffffffffffffffffffffff163373ffffffffffffffffffffffffffffffffffffffff1614151561158d576040517f08c379a000000000000000000000000000000000000000000000000000000000815260040180806020018281038252601c8152602001807f43616c6c6572206973206e6f7420636f6e7472616374206f776e65720000000081525060200191505060405180910390fd5b600560008273ffffffffffffffffffffffffffffffffffffffff1673ffffffffffffffffffffffffffffffffffffffff16815260200190815260200160002060006101000a81549060ff021916905550565b6000600154905090565b6115f16123cc565b600060149054906101000a900460ff16151561169b576040517f08c379a00000000000000000000000000000000000000000000000000000000081526004018080602001828103825260258152602001807f436f6e74726163742069732063757272656e746c79206e6f74206f706572617481526020017f696f6e616c00000000000000000000000000000000000000000000000000000081525060400191505060405180910390fd5b600560003373ffffffffffffffffffffffffffffffffffffffff1673ffffffffffffffffffffffffffffffffffffffff16815260200190815260200160002060009054906101000a900460ff16151561175c576040517f08c379a00000000000000000000000000000000000000000000000000000000081526004018080602001828103825260188152602001807f43616c6c6572206973206e6f7420617574686f72697a6564000000000000000081525060200191505060405180910390fd5b6080604051908101604052808373ffffffffffffffffffffffffffffffffffffffff1681526020016001151581526020016000815260200160011515815250905080600260008473ffffffffffffffffffffffffffffffffffffffff1673ffffffffffffffffffffffffffffffffffffffff16815260200190815260200160002060008201518160000160006101000a81548173ffffffffffffffffffffffffffffffffffffffff021916908373ffffffffffffffffffffffffffffffffffffffff16021790555060208201518160000160146101000a81548160ff0219169083151502179055506040820151816001015560608201518160020160006101000a81548160ff0219169083151502179055509050506001600081548092919060010191905055505050565b61188f6123cc565b600060149054906101000a900460ff161515611939576040517f08c379a00000000000000000000000000000000000000000000000000000000081526004018080602001828103825260258152602001807f436f6e74726163742069732063757272656e746c79206e6f74206f706572617481526020017f696f6e616c00000000000000000000000000000000000000000000000000000081525060400191505060405180910390fd5b600560003373ffffffffffffffffffffffffffffffffffffffff1673ffffffffffffffffffffffffffffffffffffffff16815260200190815260200160002060009054906101000a900460ff1615156119fa576040517f08c379a00000000000000000000000000000000000000000000000000000000081526004018080602001828103825260188152602001807f43616c6c6572206973206e6f7420617574686f72697a6564000000000000000081525060200191505060405180910390fd5b600260008373ffffffffffffffffffffffffffffffffffffffff1673ffffffffffffffffffffffffffffffffffffffff16815260200190815260200160002060020160009054906101000a900460ff1615611abd576040517f08c379a000000000000000000000000000000000000000000000000000000000815260040180806020018281038252601a8152602001807f4169726c696e6520616c7265616479207265676973746572656400000000000081525060200191505060405180910390fd5b6080604051908101604052808373ffffffffffffffffffffffffffffffffffffffff1681526020016000151581526020016000815260200160011515815250905080600260008473ffffffffffffffffffffffffffffffffffffffff1673ffffffffffffffffffffffffffffffffffffffff16815260200190815260200160002060008201518160000160006101000a81548173ffffffffffffffffffffffffffffffffffffffff021916908373ffffffffffffffffffffffffffffffffffffffff16021790555060208201518160000160146101000a81548160ff0219169083151502179055506040820151816001015560608201518160020160006101000a81548160ff0219169083151502179055509050505050565b6000600260008373ffffffffffffffffffffffffffffffffffffffff1673ffffffffffffffffffffffffffffffffffffffff16815260200190815260200160002060000160149054906101000a900460ff169050919050565b60008060008060149054906101000a900460ff161515611cdd576040517f08c379a00000000000000000000000000000000000000000000000000000000081526004018080602001828103825260258152602001807f436f6e74726163742069732063757272656e746c79206e6f74206f706572617481526020017f696f6e616c00000000000000000000000000000000000000000000000000000081525060400191505060405180910390fd5b600560003373ffffffffffffffffffffffffffffffffffffffff1673ffffffffffffffffffffffffffffffffffffffff16815260200190815260200160002060009054906101000a900460ff161515611d9e576040517f08c379a00000000000000000000000000000000000000000000000000000000081526004018080602001828103825260188152602001807f43616c6c6572206973206e6f7420617574686f72697a6564000000000000000081525060200191505060405180910390fd5b86611da881610bfd565b1515611e42576040517f08c379a00000000000000000000000000000000000000000000000000000000081526004018080602001828103825260228152602001807f4169726c696e65206861736e2774206265656e2072656769737465726564207981526020017f657400000000000000000000000000000000000000000000000000000000000081525060400191505060405180910390fd5b87600260008273ffffffffffffffffffffffffffffffffffffffff1673ffffffffffffffffffffffffffffffffffffffff16815260200190815260200160002060000160149054906101000a900460ff161515611f2d576040517f08c379a00000000000000000000000000000000000000000000000000000000081526004018080602001828103825260358152602001807f4169726c696e65207265676973746572656420627574206861736e277420737581526020017f626d697474656420746865207374616b6520796574000000000000000000000081525060400191505060405180910390fd5b611f6a8989898080601f0160208091040260200160405190810160405280939291908181526020018383808284378201915050505050508861223d565b945060036000866000191660001916815260200190815260200160002060010160009054906101000a900460ff1615151561200d576040517f08c379a00000000000000000000000000000000000000000000000000000000081526004018080602001828103825260118152602001807f416c72656164792063726564697465642100000000000000000000000000000081525060200191505060405180910390fd5b600093505b600360008660001916600019168152602001908152602001600020600001805490508410156121e5576003600086600019166000191681526020019081526020016000206000018481548110151561206657fe5b9060005260206000200154925061214061209d600261208f60038761236290919063ffffffff16565b61239a90919063ffffffff16565b60046000600360008a60001916600019168152602001908152602001600020600201888154811015156120cc57fe5b9060005260206000200160009054906101000a900473ffffffffffffffffffffffffffffffffffffffff1673ffffffffffffffffffffffffffffffffffffffff1673ffffffffffffffffffffffffffffffffffffffff168152602001908152602001600020546123b090919063ffffffff16565b600460006003600089600019166000191681526020019081526020016000206002018781548110151561216f57fe5b9060005260206000200160009054906101000a900473ffffffffffffffffffffffffffffffffffffffff1673ffffffffffffffffffffffffffffffffffffffff1673ffffffffffffffffffffffffffffffffffffffff168152602001908152602001600020819055508380600101945050612012565b600160036000876000191660001916815260200190815260200160002060010160006101000a81548160ff021916908315150217905550505050505050505050565b60008060149054906101000a900460ff16905090565b6000838383604051602001808473ffffffffffffffffffffffffffffffffffffffff1673ffffffffffffffffffffffffffffffffffffffff166c0100000000000000000000000002815260140183805190602001908083835b6020831015156122bb5780518252602082019150602081019050602083039250612296565b6001836020036101000a03801982511681845116808217855250505050505090500182815260200193505050506040516020818303038152906040526040518082805190602001908083835b60208310151561232c5780518252602082019150602081019050602083039250612307565b6001836020036101000a038019825116818451168082178552505050505050905001915050604051809103902090509392505050565b6000808314156123755760009050612394565b818302905081838281151561238657fe5b0414151561239057fe5b8090505b92915050565b600081838115156123a757fe5b04905092915050565b600081830190508281101515156123c357fe5b80905092915050565b608060405190810160405280600073ffffffffffffffffffffffffffffffffffffffff1681526020016000151581526020016000815260200160001515815250905600a165627a7a72305820c1cc8bbb664b7e2b39737a898b78cd9dd26f4a113bfd4acc1fc37f128362064e0029",
  "source": "pragma solidity ^0.4.25;\n\nimport \"../node_modules/openzeppelin-solidity/contracts/math/SafeMath.sol\";\n\ncontract FlightSuretyData {\n    using SafeMath for uint256;\n\n    /********************************************************************************************/\n    /*                                       DATA VARIABLES                                     */\n    /********************************************************************************************/\n\n    address private contractOwner;                                      // Account used to deploy contract\n    bool private operational = true;                                    // Blocks all state changes throughout the contract if false\n\n    struct airlineAccount{\n        address accountAddress;                                         // Address of the airline account\n        bool isRegistered;                                              // Blocks airlines that haven't submitted a stake\n        uint256 accountValue;                                           // Monetary value of the account\n        bool isValue;                                                   // Value exists in the mapping or not\n    }\n    uint256 airlineCount;                                               // # of registered airlines\n\n    struct purchase{                                                    // Individual plans\n        uint256[] amount;                                               // Amount insured\n        bool isCredited;                                                // Has it been credited\n        address[] insurees;\n    }\n\n    mapping(address => airlineAccount) registrations;                   // Registered airlines\n    mapping(bytes32 => purchase) purchases;                             // Purchases\n    mapping(address => uint256) credits;                                // Withdrawals available\n\n    mapping(address => bool) callers;                                   // Authorized callers to this contract\n    /********************************************************************************************/\n    /*                                       EVENT DEFINITIONS                                  */\n    /********************************************************************************************/\n\n\n    /**\n    * @dev Constructor\n    *      The deploying account becomes contractOwner\n    */\n    constructor\n    (\n    )\n    public\n    {\n        contractOwner = msg.sender;\n        callers[contractOwner] = true;\n    }\n\n    /********************************************************************************************/\n    /*                                       FUNCTION MODIFIERS                                 */\n    /********************************************************************************************/\n\n    // Modifiers help avoid duplication of code. They are typically used to validate something\n    // before a function is allowed to be executed.\n\n    /**\n    * @dev Modifier that requires the \"operational\" boolean variable to be \"true\"\n    *      This is used on all state changing functions to pause the contract in \n    *      the event there is an issue that needs to be fixed\n    */\n    modifier requireIsOperational()\n    {\n        require(operational, \"Contract is currently not operational\");\n        _;  // All modifiers require an \"_\" which indicates where the function body will be added\n    }\n\n    /**\n    * @dev Modifier that requires the \"ContractOwner\" account to be the function caller\n    */\n    modifier requireContractOwner()\n    {\n        require(msg.sender == contractOwner, \"Caller is not contract owner\");\n        _;\n    }\n\n    modifier requireFunded(address airline){\n        require(registrations[airline].isRegistered, \"Airline registered but hasn't submitted the stake yet\");\n        _;\n    }\n\n    modifier requireAirlineExists(address airline){\n        require(isAirline(airline), \"Airline hasn't been registered yet\");\n        _;\n    }\n\n    modifier requireAuthorizedCaller(){\n        require(callers[msg.sender], \"Caller is not authorized\");\n        _;\n    }\n\n    /********************************************************************************************/\n    /*                                       UTILITY FUNCTIONS                                  */\n    /********************************************************************************************/\n\n    function authorizeCaller(address add) requireContractOwner public{\n        callers[add] = true;\n    }\n\n    function deauthorizeCaller(address add) requireContractOwner public{\n        delete callers[add];\n    }\n\n    function isAirline(address add) public view returns(bool){\n        return registrations[add].isValue;\n    }\n    /**\n        * @dev Get registration status of an airline\n        *\n        * @return A bool that is the current registration status\n        */\n    function isRegistered(address airline)\n    public\n    view\n    returns(bool)\n    {\n        return registrations[airline].isRegistered;\n    }\n\n    /**\n    * @dev Get operating status of contract\n    *\n    * @return A bool that is the current operating status\n    */\n    function isOperational()\n    public\n    view\n    returns(bool)\n    {\n        return operational;\n    }\n\n\n    /**\n    * @dev Sets contract operations on/off\n    *\n    * When operational mode is disabled, all write transactions except for this one will fail\n    */\n    function setOperatingStatus\n    (\n        bool mode\n    )\n    external\n    requireContractOwner\n    {\n        operational = mode;\n    }\n\n    /********************************************************************************************/\n    /*                                     SMART CONTRACT FUNCTIONS                             */\n    /********************************************************************************************/\n    function getAirlineCount() external view returns(uint256){\n        return airlineCount;\n    }\n\n    function registerFreeAirline\n    (\n        address add\n    )\n    requireIsOperational\n    requireAuthorizedCaller\n    public\n    {\n        airlineAccount memory newAirline = airlineAccount(add, true, 0, true);\n        registrations[add] = newAirline;\n        airlineCount++;\n    }\n    /**\n     * @dev Add an airline to the registration queue\n     *      Can only be called from FlightSuretyApp contract\n     *\n     */\n    function registerAirline\n    (\n        address add\n    )\n    requireIsOperational\n    requireAuthorizedCaller\n    external\n    {\n        if(registrations[add].isValue){\n            revert(\"Airline already registered\");\n        }\n        airlineAccount memory newAirline = airlineAccount(add, false, 0, true);\n        registrations[add] = newAirline;\n    }\n\n\n    /**\n     * @dev Buy insurance for a flight\n     *\n     */\n    function buy\n    (\n        address user,\n        address airline,\n        string flight,\n        uint256 timestamp\n    )\n    requireIsOperational\n    requireAuthorizedCaller\n    requireAirlineExists(airline)\n    requireFunded(airline)\n    external\n    payable\n    {\n        require(msg.value > 0 && msg.value <= 1000000000000000000, \"Invalid ether value (valid ranges: [0-1) eths\");\n\n        bytes32 key = getFlightKey(airline, flight, timestamp);\n        purchases[key].amount.push(msg.value);\n        purchases[key].insurees.push(user);\n    }\n\n    /**\n     *  @dev Credits payouts to insurees\n    */\n    function creditInsurees\n    (\n        address airline,\n        string flight,\n        uint256 timestamp\n    )\n    requireIsOperational\n    requireAuthorizedCaller\n    requireAirlineExists(airline)\n    requireFunded(airline)\n    external\n    {\n        bytes32 key = getFlightKey(airline, flight, timestamp);\n\n        // check if already credited\n        require(!purchases[key].isCredited, \"Already credited!\");\n\n        // credit 1.5 times the purchase\n        for(uint i=0; i<purchases[key].amount.length; i++){\n            uint256 value = purchases[key].amount[i];\n            credits[purchases[key].insurees[i]] = credits[purchases[key].insurees[i]].add(value.mul(3).div(2));\n        }\n\n        // set credited to true so accounts aren't recredited\n        purchases[key].isCredited = true;\n    }\n\n    function getCredits\n    (\n        address passenger\n    )\n    requireIsOperational\n    requireAuthorizedCaller\n    external\n    view\n    returns(uint256)\n    {\n        return credits[passenger];\n    }\n\n    /**\n     *  @dev Transfers eligible payout funds to insuree\n     *\n    */\n    function pay\n    (\n        address add //user\n    )\n    requireIsOperational\n    requireAuthorizedCaller\n    external\n    payable\n    {\n        require(credits[add] > 0, \"Insufficient balance to transfer\");\n\n        uint value = uint(credits[add]);\n        delete credits[add];\n\n        add.transfer(value);\n    }\n\n    /**\n     * @dev Initial funding for the insurance. Unless there are too many delayed flights\n     *      resulting in insurance payouts, the contract should be self-sustaining\n     *\n     */\n    function fund\n    (\n        address add\n    )\n    requireIsOperational\n    requireAuthorizedCaller\n    requireAirlineExists(add)\n    public\n    payable\n    {\n        require(!isRegistered(add), \"Airline already registered\");\n        require(msg.value == 10000000000000000000, \"Payment should exactly equal 10 ethers + gas\");\n\n        registrations[add].isRegistered = true;\n        airlineCount++;\n    }\n\n    function getFlightKey\n    (\n        address airline,\n        string memory flight,\n        uint256 timestamp\n    )\n    pure\n    internal\n    returns(bytes32)\n    {\n        return keccak256(abi.encodePacked(airline, flight, timestamp));\n    }\n\n    /**\n    * @dev Fallback function for funding smart contract.\n    *\n    */\n    function()\n    external\n    payable\n    {\n        require(msg.data.length == 0, \"No data allowed in the fallback function\");\n        fund(msg.sender);\n    }\n\n\n}\n",
  "sourcePath": "/home/munaf/IdeaProjects/Wing3/contracts/FlightSuretyData.sol",
  "compiler": {
    "name": "solc",
    "version": "0.4.26+commit.4563c3fc.Emscripten.clang"
  },
  "schemaVersion": "3.0.1",
  "updatedAt": "2021-07-23T05:21:38.458Z",
  "devdoc": {
    "methods": {
      "buy(address,address,string,uint256)": {
        "details": "Buy insurance for a flight     "
      },
      "creditInsurees(address,string,uint256)": {
        "details": "Credits payouts to insurees"
      },
      "fund(address)": {
        "details": "Initial funding for the insurance. Unless there are too many delayed flights     resulting in insurance payouts, the contract should be self-sustaining     "
      },
      "isOperational()": {
        "details": "Get operating status of contract",
        "return": "A bool that is the current operating status"
      },
      "isRegistered(address)": {
        "details": "Get registration status of an airline",
        "return": "A bool that is the current registration status"
      },
      "pay(address)": {
        "details": "Transfers eligible payout funds to insuree    "
      },
      "registerAirline(address)": {
        "details": "Add an airline to the registration queue     Can only be called from FlightSuretyApp contract     "
      },
      "setOperatingStatus(bool)": {
        "details": "Sets contract operations on/off    * When operational mode is disabled, all write transactions except for this one will fail"
      }
    }
  },
  "userdoc": {
    "methods": {
      "authorizeCaller(address)": {
        "notice": "*****************************************************************************************"
      },
      "getAirlineCount()": {
        "notice": "*****************************************************************************************"
      }
    }
  }
}